{
  "contractName": "StarNotary",
  "abi": [
    {
      "inputs": [
        {
          "internalType": "string",
          "name": "name_",
          "type": "string"
        },
        {
          "internalType": "string",
          "name": "symbol_",
          "type": "string"
        }
      ],
      "stateMutability": "nonpayable",
      "type": "constructor"
    },
    {
      "anonymous": false,
      "inputs": [
        {
          "indexed": true,
          "internalType": "address",
          "name": "owner",
          "type": "address"
        },
        {
          "indexed": true,
          "internalType": "address",
          "name": "approved",
          "type": "address"
        },
        {
          "indexed": true,
          "internalType": "uint256",
          "name": "tokenId",
          "type": "uint256"
        }
      ],
      "name": "Approval",
      "type": "event"
    },
    {
      "anonymous": false,
      "inputs": [
        {
          "indexed": true,
          "internalType": "address",
          "name": "owner",
          "type": "address"
        },
        {
          "indexed": true,
          "internalType": "address",
          "name": "operator",
          "type": "address"
        },
        {
          "indexed": false,
          "internalType": "bool",
          "name": "approved",
          "type": "bool"
        }
      ],
      "name": "ApprovalForAll",
      "type": "event"
    },
    {
      "anonymous": false,
      "inputs": [
        {
          "indexed": true,
          "internalType": "address",
          "name": "from",
          "type": "address"
        },
        {
          "indexed": true,
          "internalType": "address",
          "name": "to",
          "type": "address"
        },
        {
          "indexed": true,
          "internalType": "uint256",
          "name": "tokenId",
          "type": "uint256"
        }
      ],
      "name": "Transfer",
      "type": "event"
    },
    {
      "inputs": [
        {
          "internalType": "address",
          "name": "to",
          "type": "address"
        },
        {
          "internalType": "uint256",
          "name": "tokenId",
          "type": "uint256"
        }
      ],
      "name": "approve",
      "outputs": [],
      "stateMutability": "nonpayable",
      "type": "function"
    },
    {
      "inputs": [
        {
          "internalType": "address",
          "name": "owner",
          "type": "address"
        }
      ],
      "name": "balanceOf",
      "outputs": [
        {
          "internalType": "uint256",
          "name": "",
          "type": "uint256"
        }
      ],
      "stateMutability": "view",
      "type": "function",
      "constant": true
    },
    {
      "inputs": [
        {
          "internalType": "uint256",
          "name": "tokenId",
          "type": "uint256"
        }
      ],
      "name": "getApproved",
      "outputs": [
        {
          "internalType": "address",
          "name": "",
          "type": "address"
        }
      ],
      "stateMutability": "view",
      "type": "function",
      "constant": true
    },
    {
      "inputs": [
        {
          "internalType": "address",
          "name": "owner",
          "type": "address"
        },
        {
          "internalType": "address",
          "name": "operator",
          "type": "address"
        }
      ],
      "name": "isApprovedForAll",
      "outputs": [
        {
          "internalType": "bool",
          "name": "",
          "type": "bool"
        }
      ],
      "stateMutability": "view",
      "type": "function",
      "constant": true
    },
    {
      "inputs": [],
      "name": "name",
      "outputs": [
        {
          "internalType": "string",
          "name": "",
          "type": "string"
        }
      ],
      "stateMutability": "view",
      "type": "function",
      "constant": true
    },
    {
      "inputs": [
        {
          "internalType": "uint256",
          "name": "tokenId",
          "type": "uint256"
        }
      ],
      "name": "ownerOf",
      "outputs": [
        {
          "internalType": "address",
          "name": "",
          "type": "address"
        }
      ],
      "stateMutability": "view",
      "type": "function",
      "constant": true
    },
    {
      "inputs": [
        {
          "internalType": "address",
          "name": "from",
          "type": "address"
        },
        {
          "internalType": "address",
          "name": "to",
          "type": "address"
        },
        {
          "internalType": "uint256",
          "name": "tokenId",
          "type": "uint256"
        }
      ],
      "name": "safeTransferFrom",
      "outputs": [],
      "stateMutability": "nonpayable",
      "type": "function"
    },
    {
      "inputs": [
        {
          "internalType": "address",
          "name": "from",
          "type": "address"
        },
        {
          "internalType": "address",
          "name": "to",
          "type": "address"
        },
        {
          "internalType": "uint256",
          "name": "tokenId",
          "type": "uint256"
        },
        {
          "internalType": "bytes",
          "name": "_data",
          "type": "bytes"
        }
      ],
      "name": "safeTransferFrom",
      "outputs": [],
      "stateMutability": "nonpayable",
      "type": "function"
    },
    {
      "inputs": [
        {
          "internalType": "address",
          "name": "operator",
          "type": "address"
        },
        {
          "internalType": "bool",
          "name": "approved",
          "type": "bool"
        }
      ],
      "name": "setApprovalForAll",
      "outputs": [],
      "stateMutability": "nonpayable",
      "type": "function"
    },
    {
      "inputs": [
        {
          "internalType": "uint256",
          "name": "",
          "type": "uint256"
        }
      ],
      "name": "starsForSale",
      "outputs": [
        {
          "internalType": "uint256",
          "name": "",
          "type": "uint256"
        }
      ],
      "stateMutability": "view",
      "type": "function",
      "constant": true
    },
    {
      "inputs": [
        {
          "internalType": "bytes4",
          "name": "interfaceId",
          "type": "bytes4"
        }
      ],
      "name": "supportsInterface",
      "outputs": [
        {
          "internalType": "bool",
          "name": "",
          "type": "bool"
        }
      ],
      "stateMutability": "view",
      "type": "function",
      "constant": true
    },
    {
      "inputs": [],
      "name": "symbol",
      "outputs": [
        {
          "internalType": "string",
          "name": "",
          "type": "string"
        }
      ],
      "stateMutability": "view",
      "type": "function",
      "constant": true
    },
    {
      "inputs": [
        {
          "internalType": "uint256",
          "name": "",
          "type": "uint256"
        }
      ],
      "name": "tokenIdToStarInfo",
      "outputs": [
        {
          "internalType": "string",
          "name": "name",
          "type": "string"
        },
        {
          "internalType": "bool",
          "name": "exists",
          "type": "bool"
        }
      ],
      "stateMutability": "view",
      "type": "function",
      "constant": true
    },
    {
      "inputs": [
        {
          "internalType": "uint256",
          "name": "tokenId",
          "type": "uint256"
        }
      ],
      "name": "tokenURI",
      "outputs": [
        {
          "internalType": "string",
          "name": "",
          "type": "string"
        }
      ],
      "stateMutability": "view",
      "type": "function",
      "constant": true
    },
    {
      "inputs": [
        {
          "internalType": "address",
          "name": "from",
          "type": "address"
        },
        {
          "internalType": "address",
          "name": "to",
          "type": "address"
        },
        {
          "internalType": "uint256",
          "name": "tokenId",
          "type": "uint256"
        }
      ],
      "name": "transferFrom",
      "outputs": [],
      "stateMutability": "nonpayable",
      "type": "function"
    },
    {
      "inputs": [
        {
          "internalType": "string",
          "name": "_name",
          "type": "string"
        },
        {
          "internalType": "uint256",
          "name": "_tokenId",
          "type": "uint256"
        }
      ],
      "name": "createStar",
      "outputs": [],
      "stateMutability": "nonpayable",
      "type": "function"
    },
    {
      "inputs": [
        {
          "internalType": "uint256",
          "name": "_tokenId",
          "type": "uint256"
        },
        {
          "internalType": "uint256",
          "name": "_price",
          "type": "uint256"
        }
      ],
      "name": "putStarUpForSale",
      "outputs": [],
      "stateMutability": "nonpayable",
      "type": "function"
    },
    {
      "inputs": [
        {
          "internalType": "uint256",
          "name": "_tokenId",
          "type": "uint256"
        },
        {
          "internalType": "address",
          "name": "_by",
          "type": "address"
        }
      ],
      "name": "allowManaging",
      "outputs": [],
      "stateMutability": "nonpayable",
      "type": "function"
    },
    {
      "inputs": [
        {
          "internalType": "uint256",
          "name": "_tokenId",
          "type": "uint256"
        }
      ],
      "name": "buyStar",
      "outputs": [],
      "stateMutability": "payable",
      "type": "function",
      "payable": true
    },
    {
      "inputs": [
        {
          "internalType": "uint256",
          "name": "_tokenId",
          "type": "uint256"
        }
      ],
      "name": "lookUptokenIdToStarInfo",
      "outputs": [
        {
          "internalType": "string",
          "name": "",
          "type": "string"
        }
      ],
      "stateMutability": "view",
      "type": "function",
      "constant": true
    },
    {
      "inputs": [
        {
          "internalType": "uint256",
          "name": "_tokenId1",
          "type": "uint256"
        },
        {
          "internalType": "uint256",
          "name": "_tokenId2",
          "type": "uint256"
        }
      ],
      "name": "exchangeStars",
      "outputs": [],
      "stateMutability": "nonpayable",
      "type": "function"
    },
    {
      "inputs": [
        {
          "internalType": "address",
          "name": "_to1",
          "type": "address"
        },
        {
          "internalType": "uint256",
          "name": "_tokenId",
          "type": "uint256"
        }
      ],
      "name": "transferStar",
      "outputs": [],
      "stateMutability": "nonpayable",
      "type": "function"
    }
  ],
  "bytecode": "0x60806040523480156200001157600080fd5b5060405162003714380380620037148339818101604052810190620000379190620002c2565b818181600090805190602001906200005192919062000075565b5080600190805190602001906200006a92919062000075565b5050505050620003ac565b828054620000839062000376565b90600052602060002090601f016020900481019282620000a75760008555620000f3565b82601f10620000c257805160ff1916838001178555620000f3565b82800160010185558215620000f3579182015b82811115620000f2578251825591602001919060010190620000d5565b5b50905062000102919062000106565b5090565b5b808211156200012157600081600090555060010162000107565b5090565b6000604051905090565b600080fd5b600080fd5b600080fd5b600080fd5b6000601f19601f8301169050919050565b7f4e487b7100000000000000000000000000000000000000000000000000000000600052604160045260246000fd5b6200018e8262000143565b810181811067ffffffffffffffff82111715620001b057620001af62000154565b5b80604052505050565b6000620001c562000125565b9050620001d3828262000183565b919050565b600067ffffffffffffffff821115620001f657620001f562000154565b5b620002018262000143565b9050602081019050919050565b60005b838110156200022e57808201518184015260208101905062000211565b838111156200023e576000848401525b50505050565b60006200025b6200025584620001d8565b620001b9565b9050828152602081018484840111156200027a57620002796200013e565b5b620002878482856200020e565b509392505050565b600082601f830112620002a757620002a662000139565b5b8151620002b984826020860162000244565b91505092915050565b60008060408385031215620002dc57620002db6200012f565b5b600083015167ffffffffffffffff811115620002fd57620002fc62000134565b5b6200030b858286016200028f565b925050602083015167ffffffffffffffff8111156200032f576200032e62000134565b5b6200033d858286016200028f565b9150509250929050565b7f4e487b7100000000000000000000000000000000000000000000000000000000600052602260045260246000fd5b600060028204905060018216806200038f57607f821691505b60208210811415620003a657620003a562000347565b5b50919050565b61335880620003bc6000396000f3fe6080604052600436106101355760003560e01c80636352211e116100ab578063a22cb4651161006f578063a22cb4651461043a578063b88d4fde14610463578063c87b56dd1461048c578063d7830ccb146104c9578063e7152a5c14610506578063e985e9c51461052f57610135565b80636352211e1461034357806370a0823114610380578063933a792f146103bd57806395d89b41146103e65780639697c0a11461041157610135565b806315e0afa5116100fd57806315e0afa5146102455780631967fd981461026e57806323b872dd146102ac5780632f1c34ef146102d5578063316a4361146102f157806342842e0e1461031a57610135565b806301ffc9a71461013a5780630564b1301461017757806306fdde03146101b4578063081812fc146101df578063095ea7b31461021c575b600080fd5b34801561014657600080fd5b50610161600480360381019061015c9190611f12565b61056c565b60405161016e9190611f5a565b60405180910390f35b34801561018357600080fd5b5061019e60048036038101906101999190611fab565b61064e565b6040516101ab9190611fe7565b60405180910390f35b3480156101c057600080fd5b506101c9610666565b6040516101d6919061209b565b60405180910390f35b3480156101eb57600080fd5b5061020660048036038101906102019190611fab565b6106f8565b60405161021391906120fe565b60405180910390f35b34801561022857600080fd5b50610243600480360381019061023e9190612145565b61077d565b005b34801561025157600080fd5b5061026c60048036038101906102679190612185565b610895565b005b34801561027a57600080fd5b5061029560048036038101906102909190611fab565b610950565b6040516102a39291906121c5565b60405180910390f35b3480156102b857600080fd5b506102d360048036038101906102ce91906121f5565b610a09565b005b6102ef60048036038101906102ea9190611fab565b610a69565b005b3480156102fd57600080fd5b5061031860048036038101906103139190612185565b610bee565b005b34801561032657600080fd5b50610341600480360381019061033c91906121f5565b610c80565b005b34801561034f57600080fd5b5061036a60048036038101906103659190611fab565b610ca0565b60405161037791906120fe565b60405180910390f35b34801561038c57600080fd5b506103a760048036038101906103a29190612248565b610d52565b6040516103b49190611fe7565b60405180910390f35b3480156103c957600080fd5b506103e460048036038101906103df9190612275565b610e0a565b005b3480156103f257600080fd5b506103fb610e18565b604051610408919061209b565b60405180910390f35b34801561041d57600080fd5b50610438600480360381019061043391906123ea565b610eaa565b005b34801561044657600080fd5b50610461600480360381019061045c9190612472565b610f29565b005b34801561046f57600080fd5b5061048a60048036038101906104859190612553565b6110aa565b005b34801561049857600080fd5b506104b360048036038101906104ae9190611fab565b61110c565b6040516104c0919061209b565b60405180910390f35b3480156104d557600080fd5b506104f060048036038101906104eb9190611fab565b6111b3565b6040516104fd919061209b565b60405180910390f35b34801561051257600080fd5b5061052d60048036038101906105289190612145565b6112be565b005b34801561053b57600080fd5b50610556600480360381019061055191906125d6565b611343565b6040516105639190611f5a565b60405180910390f35b60007f80ac58cd000000000000000000000000000000000000000000000000000000007bffffffffffffffffffffffffffffffffffffffffffffffffffffffff1916827bffffffffffffffffffffffffffffffffffffffffffffffffffffffff1916148061063757507f5b5e139f000000000000000000000000000000000000000000000000000000007bffffffffffffffffffffffffffffffffffffffffffffffffffffffff1916827bffffffffffffffffffffffffffffffffffffffffffffffffffffffff1916145b806106475750610646826113d7565b5b9050919050565b60076020528060005260406000206000915090505481565b60606000805461067590612645565b80601f01602080910402602001604051908101604052809291908181526020018280546106a190612645565b80156106ee5780601f106106c3576101008083540402835291602001916106ee565b820191906000526020600020905b8154815290600101906020018083116106d157829003601f168201915b5050505050905090565b600061070382611441565b610742576040517f08c379a0000000000000000000000000000000000000000000000000000000008152600401610739906126e9565b60405180910390fd5b6004600083815260200190815260200160002060009054906101000a900473ffffffffffffffffffffffffffffffffffffffff169050919050565b600061078882610ca0565b90508073ffffffffffffffffffffffffffffffffffffffff168373ffffffffffffffffffffffffffffffffffffffff1614156107f9576040517f08c379a00000000000000000000000000000000000000000000000000000000081526004016107f09061277b565b60405180910390fd5b8073ffffffffffffffffffffffffffffffffffffffff166108186114ad565b73ffffffffffffffffffffffffffffffffffffffff1614806108475750610846816108416114ad565b611343565b5b610886576040517f08c379a000000000000000000000000000000000000000000000000000000000815260040161087d9061280d565b60405180910390fd5b61089083836114b5565b505050565b60006108a083610ca0565b905060006108ad83610ca0565b90503373ffffffffffffffffffffffffffffffffffffffff168273ffffffffffffffffffffffffffffffffffffffff1614156108fe576108ee338286610a09565b6108f9813385610a09565b61094a565b3373ffffffffffffffffffffffffffffffffffffffff168173ffffffffffffffffffffffffffffffffffffffff1614156109495761093d338385610a09565b610948823386610a09565b5b5b50505050565b600660205280600052604060002060009150905080600001805461097390612645565b80601f016020809104026020016040519081016040528092919081815260200182805461099f90612645565b80156109ec5780601f106109c1576101008083540402835291602001916109ec565b820191906000526020600020905b8154815290600101906020018083116109cf57829003601f168201915b5050505050908060010160009054906101000a900460ff16905082565b610a1a610a146114ad565b8261156e565b610a59576040517f08c379a0000000000000000000000000000000000000000000000000000000008152600401610a509061289f565b60405180910390fd5b610a6483838361164c565b505050565b6000600760008381526020019081526020016000205411610abf576040517f08c379a0000000000000000000000000000000000000000000000000000000008152600401610ab69061290b565b60405180910390fd5b6000600760008381526020019081526020016000205490506000610ae283610ca0565b9050813411610b26576040517f08c379a0000000000000000000000000000000000000000000000000000000008152600401610b1d90612977565b60405180910390fd5b610b31813385610a09565b6000610b3c826118a8565b90508073ffffffffffffffffffffffffffffffffffffffff166108fc849081150290604051600060405180830381858888f19350505050158015610b84573d6000803e3d6000fd5b5082341115610be857610b96336118a8565b73ffffffffffffffffffffffffffffffffffffffff166108fc8434610bbb91906129c6565b9081150290604051600060405180830381858888f19350505050158015610be6573d6000803e3d6000fd5b505b50505050565b3373ffffffffffffffffffffffffffffffffffffffff16610c0e83610ca0565b73ffffffffffffffffffffffffffffffffffffffff1614610c64576040517f08c379a0000000000000000000000000000000000000000000000000000000008152600401610c5b90612a6c565b60405180910390fd5b8060076000848152602001908152602001600020819055505050565b610c9b838383604051806020016040528060008152506110aa565b505050565b6000806002600084815260200190815260200160002060009054906101000a900473ffffffffffffffffffffffffffffffffffffffff169050600073ffffffffffffffffffffffffffffffffffffffff168173ffffffffffffffffffffffffffffffffffffffff161415610d49576040517f08c379a0000000000000000000000000000000000000000000000000000000008152600401610d4090612afe565b60405180910390fd5b80915050919050565b60008073ffffffffffffffffffffffffffffffffffffffff168273ffffffffffffffffffffffffffffffffffffffff161415610dc3576040517f08c379a0000000000000000000000000000000000000000000000000000000008152600401610dba90612b90565b60405180910390fd5b600360008373ffffffffffffffffffffffffffffffffffffffff1673ffffffffffffffffffffffffffffffffffffffff168152602001908152602001600020549050919050565b610e14818361077d565b5050565b606060018054610e2790612645565b80601f0160208091040260200160405190810160405280929190818152602001828054610e5390612645565b8015610ea05780601f10610e7557610100808354040283529160200191610ea0565b820191906000526020600020905b815481529060010190602001808311610e8357829003601f168201915b5050505050905090565b6000604051806040016040528084815260200160011515815250905080600660008481526020019081526020016000206000820151816000019080519060200190610ef6929190611e03565b5060208201518160010160006101000a81548160ff021916908315150217905550905050610f2433836118b2565b505050565b610f316114ad565b73ffffffffffffffffffffffffffffffffffffffff168273ffffffffffffffffffffffffffffffffffffffff161415610f9f576040517f08c379a0000000000000000000000000000000000000000000000000000000008152600401610f9690612bfc565b60405180910390fd5b8060056000610fac6114ad565b73ffffffffffffffffffffffffffffffffffffffff1673ffffffffffffffffffffffffffffffffffffffff16815260200190815260200160002060008473ffffffffffffffffffffffffffffffffffffffff1673ffffffffffffffffffffffffffffffffffffffff16815260200190815260200160002060006101000a81548160ff0219169083151502179055508173ffffffffffffffffffffffffffffffffffffffff166110596114ad565b73ffffffffffffffffffffffffffffffffffffffff167f17307eab39ab6107e8899845ad3d59bd9653f200f220920489ca2b5937696c318360405161109e9190611f5a565b60405180910390a35050565b6110bb6110b56114ad565b8361156e565b6110fa576040517f08c379a00000000000000000000000000000000000000000000000000000000081526004016110f19061289f565b60405180910390fd5b61110684848484611a80565b50505050565b606061111782611441565b611156576040517f08c379a000000000000000000000000000000000000000000000000000000000815260040161114d90612c8e565b60405180910390fd5b6000611160611adc565b9050600081511161118057604051806020016040528060008152506111ab565b8061118a84611af3565b60405160200161119b929190612cea565b6040516020818303038152906040525b915050919050565b60606006600083815260200190815260200160002060010160009054906101000a900460ff16611218576040517f08c379a000000000000000000000000000000000000000000000000000000000815260040161120f90612d34565b60405180910390fd5b60066000838152602001908152602001600020600001805461123990612645565b80601f016020809104026020016040519081016040528092919081815260200182805461126590612645565b80156112b25780601f10611287576101008083540402835291602001916112b2565b820191906000526020600020905b81548152906001019060200180831161129557829003601f168201915b50505050509050919050565b3373ffffffffffffffffffffffffffffffffffffffff166112de82610ca0565b73ffffffffffffffffffffffffffffffffffffffff1614611334576040517f08c379a000000000000000000000000000000000000000000000000000000000815260040161132b90612da0565b60405180910390fd5b61133f338383610a09565b5050565b6000600560008473ffffffffffffffffffffffffffffffffffffffff1673ffffffffffffffffffffffffffffffffffffffff16815260200190815260200160002060008373ffffffffffffffffffffffffffffffffffffffff1673ffffffffffffffffffffffffffffffffffffffff16815260200190815260200160002060009054906101000a900460ff16905092915050565b60007f01ffc9a7000000000000000000000000000000000000000000000000000000007bffffffffffffffffffffffffffffffffffffffffffffffffffffffff1916827bffffffffffffffffffffffffffffffffffffffffffffffffffffffff1916149050919050565b60008073ffffffffffffffffffffffffffffffffffffffff166002600084815260200190815260200160002060009054906101000a900473ffffffffffffffffffffffffffffffffffffffff1673ffffffffffffffffffffffffffffffffffffffff1614159050919050565b600033905090565b816004600083815260200190815260200160002060006101000a81548173ffffffffffffffffffffffffffffffffffffffff021916908373ffffffffffffffffffffffffffffffffffffffff160217905550808273ffffffffffffffffffffffffffffffffffffffff1661152883610ca0565b73ffffffffffffffffffffffffffffffffffffffff167f8c5be1e5ebec7d5bd14f71427d1e84f3dd0314c0f7b2291e5b200ac8c7c3b92560405160405180910390a45050565b600061157982611441565b6115b8576040517f08c379a00000000000000000000000000000000000000000000000000000000081526004016115af90612e32565b60405180910390fd5b60006115c383610ca0565b90508073ffffffffffffffffffffffffffffffffffffffff168473ffffffffffffffffffffffffffffffffffffffff16148061163257508373ffffffffffffffffffffffffffffffffffffffff1661161a846106f8565b73ffffffffffffffffffffffffffffffffffffffff16145b8061164357506116428185611343565b5b91505092915050565b8273ffffffffffffffffffffffffffffffffffffffff1661166c82610ca0565b73ffffffffffffffffffffffffffffffffffffffff16146116c2576040517f08c379a00000000000000000000000000000000000000000000000000000000081526004016116b990612ec4565b60405180910390fd5b600073ffffffffffffffffffffffffffffffffffffffff168273ffffffffffffffffffffffffffffffffffffffff161415611732576040517f08c379a000000000000000000000000000000000000000000000000000000000815260040161172990612f56565b60405180910390fd5b61173d838383611c54565b6117486000826114b5565b6001600360008573ffffffffffffffffffffffffffffffffffffffff1673ffffffffffffffffffffffffffffffffffffffff168152602001908152602001600020600082825461179891906129c6565b925050819055506001600360008473ffffffffffffffffffffffffffffffffffffffff1673ffffffffffffffffffffffffffffffffffffffff16815260200190815260200160002060008282546117ef9190612f76565b92505081905550816002600083815260200190815260200160002060006101000a81548173ffffffffffffffffffffffffffffffffffffffff021916908373ffffffffffffffffffffffffffffffffffffffff160217905550808273ffffffffffffffffffffffffffffffffffffffff168473ffffffffffffffffffffffffffffffffffffffff167fddf252ad1be2c89b69c2b068fc378daa952ba7f163c4a11628f55a4df523b3ef60405160405180910390a4505050565b6000819050919050565b600073ffffffffffffffffffffffffffffffffffffffff168273ffffffffffffffffffffffffffffffffffffffff161415611922576040517f08c379a000000000000000000000000000000000000000000000000000000000815260040161191990613018565b60405180910390fd5b61192b81611441565b1561196b576040517f08c379a000000000000000000000000000000000000000000000000000000000815260040161196290613084565b60405180910390fd5b61197760008383611c54565b6001600360008473ffffffffffffffffffffffffffffffffffffffff1673ffffffffffffffffffffffffffffffffffffffff16815260200190815260200160002060008282546119c79190612f76565b92505081905550816002600083815260200190815260200160002060006101000a81548173ffffffffffffffffffffffffffffffffffffffff021916908373ffffffffffffffffffffffffffffffffffffffff160217905550808273ffffffffffffffffffffffffffffffffffffffff16600073ffffffffffffffffffffffffffffffffffffffff167fddf252ad1be2c89b69c2b068fc378daa952ba7f163c4a11628f55a4df523b3ef60405160405180910390a45050565b611a8b84848461164c565b611a9784848484611c59565b611ad6576040517f08c379a0000000000000000000000000000000000000000000000000000000008152600401611acd90613116565b60405180910390fd5b50505050565b606060405180602001604052806000815250905090565b60606000821415611b3b576040518060400160405280600181526020017f30000000000000000000000000000000000000000000000000000000000000008152509050611c4f565b600082905060005b60008214611b6d578080611b5690613136565b915050600a82611b6691906131ae565b9150611b43565b60008167ffffffffffffffff811115611b8957611b886122bf565b5b6040519080825280601f01601f191660200182016040528015611bbb5781602001600182028036833780820191505090505b5090505b60008514611c4857600182611bd491906129c6565b9150600a85611be391906131df565b6030611bef9190612f76565b60f81b818381518110611c0557611c04613210565b5b60200101907effffffffffffffffffffffffffffffffffffffffffffffffffffffffffffff1916908160001a905350600a85611c4191906131ae565b9450611bbf565b8093505050505b919050565b505050565b6000611c7a8473ffffffffffffffffffffffffffffffffffffffff16611df0565b15611de3578373ffffffffffffffffffffffffffffffffffffffff1663150b7a02611ca36114ad565b8786866040518563ffffffff1660e01b8152600401611cc59493929190613294565b602060405180830381600087803b158015611cdf57600080fd5b505af1925050508015611d1057506040513d601f19601f82011682018060405250810190611d0d91906132f5565b60015b611d93573d8060008114611d40576040519150601f19603f3d011682016040523d82523d6000602084013e611d45565b606091505b50600081511415611d8b576040517f08c379a0000000000000000000000000000000000000000000000000000000008152600401611d8290613116565b60405180910390fd5b805181602001fd5b63150b7a0260e01b7bffffffffffffffffffffffffffffffffffffffffffffffffffffffff1916817bffffffffffffffffffffffffffffffffffffffffffffffffffffffff191614915050611de8565b600190505b949350505050565b600080823b905060008111915050919050565b828054611e0f90612645565b90600052602060002090601f016020900481019282611e315760008555611e78565b82601f10611e4a57805160ff1916838001178555611e78565b82800160010185558215611e78579182015b82811115611e77578251825591602001919060010190611e5c565b5b509050611e859190611e89565b5090565b5b80821115611ea2576000816000905550600101611e8a565b5090565b6000604051905090565b600080fd5b600080fd5b60007fffffffff0000000000000000000000000000000000000000000000000000000082169050919050565b611eef81611eba565b8114611efa57600080fd5b50565b600081359050611f0c81611ee6565b92915050565b600060208284031215611f2857611f27611eb0565b5b6000611f3684828501611efd565b91505092915050565b60008115159050919050565b611f5481611f3f565b82525050565b6000602082019050611f6f6000830184611f4b565b92915050565b6000819050919050565b611f8881611f75565b8114611f9357600080fd5b50565b600081359050611fa581611f7f565b92915050565b600060208284031215611fc157611fc0611eb0565b5b6000611fcf84828501611f96565b91505092915050565b611fe181611f75565b82525050565b6000602082019050611ffc6000830184611fd8565b92915050565b600081519050919050565b600082825260208201905092915050565b60005b8381101561203c578082015181840152602081019050612021565b8381111561204b576000848401525b50505050565b6000601f19601f8301169050919050565b600061206d82612002565b612077818561200d565b935061208781856020860161201e565b61209081612051565b840191505092915050565b600060208201905081810360008301526120b58184612062565b905092915050565b600073ffffffffffffffffffffffffffffffffffffffff82169050919050565b60006120e8826120bd565b9050919050565b6120f8816120dd565b82525050565b600060208201905061211360008301846120ef565b92915050565b612122816120dd565b811461212d57600080fd5b50565b60008135905061213f81612119565b92915050565b6000806040838503121561215c5761215b611eb0565b5b600061216a85828601612130565b925050602061217b85828601611f96565b9150509250929050565b6000806040838503121561219c5761219b611eb0565b5b60006121aa85828601611f96565b92505060206121bb85828601611f96565b9150509250929050565b600060408201905081810360008301526121df8185612062565b90506121ee6020830184611f4b565b9392505050565b60008060006060848603121561220e5761220d611eb0565b5b600061221c86828701612130565b935050602061222d86828701612130565b925050604061223e86828701611f96565b9150509250925092565b60006020828403121561225e5761225d611eb0565b5b600061226c84828501612130565b91505092915050565b6000806040838503121561228c5761228b611eb0565b5b600061229a85828601611f96565b92505060206122ab85828601612130565b9150509250929050565b600080fd5b600080fd5b7f4e487b7100000000000000000000000000000000000000000000000000000000600052604160045260246000fd5b6122f782612051565b810181811067ffffffffffffffff82111715612316576123156122bf565b5b80604052505050565b6000612329611ea6565b905061233582826122ee565b919050565b600067ffffffffffffffff821115612355576123546122bf565b5b61235e82612051565b9050602081019050919050565b82818337600083830152505050565b600061238d6123888461233a565b61231f565b9050828152602081018484840111156123a9576123a86122ba565b5b6123b484828561236b565b509392505050565b600082601f8301126123d1576123d06122b5565b5b81356123e184826020860161237a565b91505092915050565b6000806040838503121561240157612400611eb0565b5b600083013567ffffffffffffffff81111561241f5761241e611eb5565b5b61242b858286016123bc565b925050602061243c85828601611f96565b9150509250929050565b61244f81611f3f565b811461245a57600080fd5b50565b60008135905061246c81612446565b92915050565b6000806040838503121561248957612488611eb0565b5b600061249785828601612130565b92505060206124a88582860161245d565b9150509250929050565b600067ffffffffffffffff8211156124cd576124cc6122bf565b5b6124d682612051565b9050602081019050919050565b60006124f66124f1846124b2565b61231f565b905082815260208101848484011115612512576125116122ba565b5b61251d84828561236b565b509392505050565b600082601f83011261253a576125396122b5565b5b813561254a8482602086016124e3565b91505092915050565b6000806000806080858703121561256d5761256c611eb0565b5b600061257b87828801612130565b945050602061258c87828801612130565b935050604061259d87828801611f96565b925050606085013567ffffffffffffffff8111156125be576125bd611eb5565b5b6125ca87828801612525565b91505092959194509250565b600080604083850312156125ed576125ec611eb0565b5b60006125fb85828601612130565b925050602061260c85828601612130565b9150509250929050565b7f4e487b7100000000000000000000000000000000000000000000000000000000600052602260045260246000fd5b6000600282049050600182168061265d57607f821691505b6020821081141561267157612670612616565b5b50919050565b7f4552433732313a20617070726f76656420717565727920666f72206e6f6e657860008201527f697374656e7420746f6b656e0000000000000000000000000000000000000000602082015250565b60006126d3602c8361200d565b91506126de82612677565b604082019050919050565b60006020820190508181036000830152612702816126c6565b9050919050565b7f4552433732313a20617070726f76616c20746f2063757272656e74206f776e6560008201527f7200000000000000000000000000000000000000000000000000000000000000602082015250565b600061276560218361200d565b915061277082612709565b604082019050919050565b6000602082019050818103600083015261279481612758565b9050919050565b7f4552433732313a20617070726f76652063616c6c6572206973206e6f74206f7760008201527f6e6572206e6f7220617070726f76656420666f7220616c6c0000000000000000602082015250565b60006127f760388361200d565b91506128028261279b565b604082019050919050565b60006020820190508181036000830152612826816127ea565b9050919050565b7f4552433732313a207472616e736665722063616c6c6572206973206e6f74206f60008201527f776e6572206e6f7220617070726f766564000000000000000000000000000000602082015250565b600061288960318361200d565b91506128948261282d565b604082019050919050565b600060208201905081810360008301526128b88161287c565b9050919050565b7f54686520537461722073686f756c6420626520757020666f722073616c650000600082015250565b60006128f5601e8361200d565b9150612900826128bf565b602082019050919050565b60006020820190508181036000830152612924816128e8565b9050919050565b7f596f75206e65656420746f206861766520656e6f756768204574686572000000600082015250565b6000612961601d8361200d565b915061296c8261292b565b602082019050919050565b6000602082019050818103600083015261299081612954565b9050919050565b7f4e487b7100000000000000000000000000000000000000000000000000000000600052601160045260246000fd5b60006129d182611f75565b91506129dc83611f75565b9250828210156129ef576129ee612997565b5b828203905092915050565b7f596f752063616e27742073616c6520746865205374617220796f7520646f6e2760008201527f74206f776e656400000000000000000000000000000000000000000000000000602082015250565b6000612a5660278361200d565b9150612a61826129fa565b604082019050919050565b60006020820190508181036000830152612a8581612a49565b9050919050565b7f4552433732313a206f776e657220717565727920666f72206e6f6e657869737460008201527f656e7420746f6b656e0000000000000000000000000000000000000000000000602082015250565b6000612ae860298361200d565b9150612af382612a8c565b604082019050919050565b60006020820190508181036000830152612b1781612adb565b9050919050565b7f4552433732313a2062616c616e636520717565727920666f7220746865207a6560008201527f726f206164647265737300000000000000000000000000000000000000000000602082015250565b6000612b7a602a8361200d565b9150612b8582612b1e565b604082019050919050565b60006020820190508181036000830152612ba981612b6d565b9050919050565b7f4552433732313a20617070726f766520746f2063616c6c657200000000000000600082015250565b6000612be660198361200d565b9150612bf182612bb0565b602082019050919050565b60006020820190508181036000830152612c1581612bd9565b9050919050565b7f4552433732314d657461646174613a2055524920717565727920666f72206e6f60008201527f6e6578697374656e7420746f6b656e0000000000000000000000000000000000602082015250565b6000612c78602f8361200d565b9150612c8382612c1c565b604082019050919050565b60006020820190508181036000830152612ca781612c6b565b9050919050565b600081905092915050565b6000612cc482612002565b612cce8185612cae565b9350612cde81856020860161201e565b80840191505092915050565b6000612cf68285612cb9565b9150612d028284612cb9565b91508190509392505050565b50565b6000612d1e60008361200d565b9150612d2982612d0e565b600082019050919050565b60006020820190508181036000830152612d4d81612d11565b9050919050565b7f5468652073656e646572206d757374206f776e20746865207374617200000000600082015250565b6000612d8a601c8361200d565b9150612d9582612d54565b602082019050919050565b60006020820190508181036000830152612db981612d7d565b9050919050565b7f4552433732313a206f70657261746f7220717565727920666f72206e6f6e657860008201527f697374656e7420746f6b656e0000000000000000000000000000000000000000602082015250565b6000612e1c602c8361200d565b9150612e2782612dc0565b604082019050919050565b60006020820190508181036000830152612e4b81612e0f565b9050919050565b7f4552433732313a207472616e73666572206f6620746f6b656e2074686174206960008201527f73206e6f74206f776e0000000000000000000000000000000000000000000000602082015250565b6000612eae60298361200d565b9150612eb982612e52565b604082019050919050565b60006020820190508181036000830152612edd81612ea1565b9050919050565b7f4552433732313a207472616e7366657220746f20746865207a65726f2061646460008201527f7265737300000000000000000000000000000000000000000000000000000000602082015250565b6000612f4060248361200d565b9150612f4b82612ee4565b604082019050919050565b60006020820190508181036000830152612f6f81612f33565b9050919050565b6000612f8182611f75565b9150612f8c83611f75565b9250827fffffffffffffffffffffffffffffffffffffffffffffffffffffffffffffffff03821115612fc157612fc0612997565b5b828201905092915050565b7f4552433732313a206d696e7420746f20746865207a65726f2061646472657373600082015250565b600061300260208361200d565b915061300d82612fcc565b602082019050919050565b6000602082019050818103600083015261303181612ff5565b9050919050565b7f4552433732313a20746f6b656e20616c7265616479206d696e74656400000000600082015250565b600061306e601c8361200d565b915061307982613038565b602082019050919050565b6000602082019050818103600083015261309d81613061565b9050919050565b7f4552433732313a207472616e7366657220746f206e6f6e20455243373231526560008201527f63656976657220696d706c656d656e7465720000000000000000000000000000602082015250565b600061310060328361200d565b915061310b826130a4565b604082019050919050565b6000602082019050818103600083015261312f816130f3565b9050919050565b600061314182611f75565b91507fffffffffffffffffffffffffffffffffffffffffffffffffffffffffffffffff82141561317457613173612997565b5b600182019050919050565b7f4e487b7100000000000000000000000000000000000000000000000000000000600052601260045260246000fd5b60006131b982611f75565b91506131c483611f75565b9250826131d4576131d361317f565b5b828204905092915050565b60006131ea82611f75565b91506131f583611f75565b9250826132055761320461317f565b5b828206905092915050565b7f4e487b7100000000000000000000000000000000000000000000000000000000600052603260045260246000fd5b600081519050919050565b600082825260208201905092915050565b60006132668261323f565b613270818561324a565b935061328081856020860161201e565b61328981612051565b840191505092915050565b60006080820190506132a960008301876120ef565b6132b660208301866120ef565b6132c36040830185611fd8565b81810360608301526132d5818461325b565b905095945050505050565b6000815190506132ef81611ee6565b92915050565b60006020828403121561330b5761330a611eb0565b5b6000613319848285016132e0565b9150509291505056fea26469706673582212204f869b466bc78fd9dbe445676699c662b6702e538cfc5a8d7296c5b6d7bf496164736f6c63430008090033",
  "immutableReferences": {},
  "source": "pragma solidity >=0.4.24;\n\n//Importing openzeppelin-solidity ERC-721 implemented Standard\nimport \"../app/node_modules/@openzeppelin/contracts/token/ERC721/ERC721.sol\";\n\n// StarNotary Contract declaration inheritance the ERC721 openzeppelin implementation\ncontract StarNotary is ERC721 {\n\n    constructor(string memory name_, string memory symbol_) public ERC721(name_, symbol_) {}\n\n    // Star data\n    struct Star {\n        string name;\n        bool exists;\n    }\n\n    // mapping the tokenId to Star\n    mapping(uint256 => Star) public tokenIdToStarInfo;\n    // mapping the TokenId and price\n    mapping(uint256 => uint256) public starsForSale;\n\n    // Create Star using the Struct\n    function createStar(string memory _name, uint256 _tokenId) public {\n        // Passing the name and tokenId as a parameters\n        Star memory newStar = Star(_name, true); // Star is an struct so we are creating a new Star\n        tokenIdToStarInfo[_tokenId] = newStar; // Creating in memory the Star -> tokenId mapping\n        _mint(msg.sender, _tokenId); // _mint assign the the star with _tokenId to the sender address (ownership)\n    }\n\n    // Putting an Star for sale (Adding the star tokenid into the mapping starsForSale, first verify that the sender is the owner)\n    function putStarUpForSale(uint256 _tokenId, uint256 _price) public {\n        require(\n            ownerOf(_tokenId) == msg.sender,\n            \"You can't sale the Star you don't owned\"\n        );\n        starsForSale[_tokenId] = _price;\n    }\n\n    // Function that allows you to convert an address into a payable address\n    function _make_payable(address x) internal pure returns (address payable) {\n        return payable(address(uint160(x)));\n    }\n\n    function allowManaging(uint256 _tokenId, address _by) public {\n        approve(_by, _tokenId);\n    }\n\n    function buyStar(uint256 _tokenId) public payable {\n        require(starsForSale[_tokenId] > 0, \"The Star should be up for sale\");\n        \n        uint256 starCost = starsForSale[_tokenId];\n        address ownerAddress = ownerOf(_tokenId);\n        \n        require(msg.value > starCost, \"You need to have enough Ether\");\n        transferFrom(ownerAddress, msg.sender, _tokenId); // We can't use _addTokenTo or_removeTokenFrom functions, now we have to use _transferFrom\n        \n        address payable ownerAddressPayable = _make_payable(ownerAddress); // We need to make this conversion to be able to use transfer() function to transfer ethers\n        ownerAddressPayable.transfer(starCost);\n        if (msg.value > starCost) {\n            _make_payable(msg.sender).transfer(msg.value - starCost);\n        }\n    }\n\n    // Implement Task 1 lookUptokenIdToStarInfo\n    function lookUptokenIdToStarInfo(uint256 _tokenId)\n        public\n        view\n        returns (string memory)\n    {\n        require(tokenIdToStarInfo[_tokenId].exists, \"\");\n        return tokenIdToStarInfo[_tokenId].name;\n    }\n\n    // Implement Task 1 Exchange Stars function\n    function exchangeStars(uint256 _tokenId1, uint256 _tokenId2) public {\n        //1. Passing to star tokenId you will need to check if the owner of _tokenId1 or _tokenId2 is the sender\n\n        // _tokenId1 owner is the sender\n        address owner1 = ownerOf(_tokenId1);\n        address owner2 = ownerOf(_tokenId2);\n        if (owner1 == msg.sender) {\n            transferFrom(msg.sender, owner2, _tokenId1);\n            transferFrom(owner2, msg.sender, _tokenId2);\n        } \n        // _tokenId2 owner is the sender\n        else if (owner2 == msg.sender) {\n            transferFrom(msg.sender, owner1, _tokenId2);\n            transferFrom(owner1, msg.sender, _tokenId1);\n        }\n\n        //2. You don't have to check for the price of the token (star)\n        //3. Get the owner of the two tokens (ownerOf(_tokenId1), ownerOf(_tokenId1)\n        //4. Use _transferFrom function to exchange the tokens.\n    }\n\n    // Implement Task 1 Transfer Stars\n    function transferStar(address _to1, uint256 _tokenId) public {\n        //1. Check if the sender is the ownerOf(_tokenId)\n        require(ownerOf(_tokenId) == msg.sender, \"The sender must own the star\");\n        //2. Use the transferFrom(from, to, tokenId); function to transfer the Star\n        transferFrom(msg.sender, _to1, _tokenId);\n    }\n}\n",
  "sourcePath": "/Users/tanin/Projects/LearnBlockchain/part3/Lesson3/starNotaryV3/contracts/StarNotary.sol",
  "compiler": {
    "name": "solc",
    "version": "0.8.9+commit.e5eed63a.Emscripten.clang"
  },
  "schemaVersion": "3.4.3",
  "updatedAt": "2021-10-23T14:06:35.465Z",
  "networkType": "ethereum",
  "devdoc": {
    "kind": "dev",
    "methods": {
      "approve(address,uint256)": {
        "details": "See {IERC721-approve}."
      },
      "balanceOf(address)": {
        "details": "See {IERC721-balanceOf}."
      },
      "getApproved(uint256)": {
        "details": "See {IERC721-getApproved}."
      },
      "isApprovedForAll(address,address)": {
        "details": "See {IERC721-isApprovedForAll}."
      },
      "name()": {
        "details": "See {IERC721Metadata-name}."
      },
      "ownerOf(uint256)": {
        "details": "See {IERC721-ownerOf}."
      },
      "safeTransferFrom(address,address,uint256)": {
        "details": "See {IERC721-safeTransferFrom}."
      },
      "safeTransferFrom(address,address,uint256,bytes)": {
        "details": "See {IERC721-safeTransferFrom}."
      },
      "setApprovalForAll(address,bool)": {
        "details": "See {IERC721-setApprovalForAll}."
      },
      "supportsInterface(bytes4)": {
        "details": "See {IERC165-supportsInterface}."
      },
      "symbol()": {
        "details": "See {IERC721Metadata-symbol}."
      },
      "tokenURI(uint256)": {
        "details": "See {IERC721Metadata-tokenURI}."
      },
      "transferFrom(address,address,uint256)": {
        "details": "See {IERC721-transferFrom}."
      }
    },
    "version": 1
  },
  "userdoc": {
    "kind": "user",
    "methods": {},
    "version": 1
  }
}